:020000040800F2
:1000000018170020E5010008E7330008DF33000877
:10001000E33300083114000805390008000000002F
:100020000000000000000000000000001134000883
:100030008914000800000000FB010008FD01000811
:10004000FF010008FF010008FF010008FF01000890
:10005000FF010008FF010008FF010008FF01000880
:10006000FF010008FF010008FF0100083514000827
:10007000FF010008FF010008FF010008FF01000860
:10008000FF010008FF010008FF010008FF01000850
:10009000FF010008FF010008FF010008FF01000840
:1000A000FF010008FF010008FF010008FF01000830
:1000B000FF010008FF010008FF010008FF01000820
:1000C000FF010008FF010008FF010008FF01000810
:1000D000FF010008D1360008F5360008FD3700089A
:1000E000FF010008FF010008FF010008FF010008F0
:1000F000FF010008FF010008FF010008FF010008E0
:10010000FF010008FF010008FF010008FF010008CF
:10011000FF010008FF010008FF010008FF010008BF
:10012000FF010008FF010008FF010008FF010008AF
:1001300000F002F800F047F80AA090E8000C8244B2
:100140008344AAF10107DA4501D100F03CF8AFF28F
:10015000090EBAE80F0013F0010F18BFFB1A43F0A5
:1001600001031847D8490000F8490000103A24BF9D
:1001700078C878C1FAD8520724BF30C830C144BF0C
:1001800004680C607047000000230024002500264E
:10019000103A28BF78C1FBD8520728BF30C148BFEA
:1001A0000B607047662904F06784002070471FB514
:1001B00000F06CFB04000020002103F0C9FEE060A9
:1001C0001FBD10B510BD00F061FC1146FFF7EFFF39
:1001D00003F02EFD00F07FFC03B4FFF7F2FF03BC39
:1001E00003F0C9FB0948804709480047FEE7FEE7DE
:1001F000FEE7FEE7FEE7FEE7FEE7FEE7FEE7FEE7D7
:1002000004480549054A064B7047000013340008AE
:1002100031010008181100201817002018130020C1
:1002200018130020704700000FB4044910B503AA4A
:10023000029800F019FB10BC5DF814FB08000020C8
:100240002DE9F05F894604464FF0000ADFF874B1EB
:10025000FB44C0F820A02046E1688847002874D0FD
:10026000252806D0D4E901219047206A401C20624D
:10027000F1E700265F462046E168884720280546CA
:1002800007DB312D05D2781910F8200C08B1064390
:10029000F1E7B00701D526F00406C4F81CA000273A
:1002A000C4F818A02A2D09D0284603F05DFB38B306
:1002B00004EB8708303DC8F8185019E059F8041BC2
:1002C000204604EB87029161E1688847012F0546CB
:1002D00018D1E069002820DA26F020061DE0D8F8C1
:1002E000180000EB800005EB40003038C8F818001B
:1002F0002046E1688847054603F036FB0028EED12A
:10030000012F0AD02E2D08D12046E16888477F1C96
:100310000546022F46F02006C4DBA069002803DA58
:10032000404246F00106A061F00701D026F0100619
:100330006C2D0BD0682D09D04C2D39D06A2D35D0BD
:10034000742D35D07A2D33D016E038E0E1682F4691
:1003500020468847B842054609D16C2F26D04FF475
:100360008060E168064320468847054604E06C2F1C
:100370001AD04FF4807006430DB3A5F1410019283F
:1003800002D8203546F400664A46294620462660B3
:100390004E46FFF707FF80B101280BD0F61D26F06F
:1003A000070000F1080956E74020E4E78020D8E77D
:1003B0000020D6E706F104094DE7284652E7206AF7
:1003C000BDE8F09F404800004FF0000200B5134622
:1003D00094469646203922BFA0E80C50A0E80C5065
:1003E000B1F12001BFF4F7AF090728BFA0E80C5016
:1003F00048BF0CC05DF804EB890028BF40F8042B0F
:1004000008BF704748BF20F8022B11F0804F18BF7B
:1004100000F8012B7047704770477047704770476E
:100420002DE9FF4F0C461E464FF0FF378BB0D2E947
:100430000001DDF860800A908A46C1F30A5505B9CB
:100440003D46002108464FF00000BAF1000F00F4CD
:10045000400005DA00EB80004FF4400101EA500053
:100460004FEA9059B9F1010F00DDB9460A9850EAF8
:100470004A000ED044F61050A5F2FF3545432F1424
:10048000B8F1000F1ED07542291E1EDDC9F1000211
:100490001CE0B8F1010F4FF0000001D0302103E063
:1004A000F24305E02154401CB042FBDB3046002201
:1004B000002121540B99C1F80880C1E900200FB038
:1004C000BDE8F08FBD1B6D1CDEE74A4600DA6942CD
:1004D00006A800F065FA06AB93E8070003AB83E8D3
:1004E000070050460A9900F03DFB8DE80700A0F593
:1004F00000501F3800900398002D09DD42F21F01C3
:100500004A46084403A90390684600F09CFD08E0B1
:10051000A0F500504A461F3803A90390684600F032
:10052000A6FD8DE807000004000C03D04FF0FF305B
:10053000410800E01046B8F1000F03D000220092FD
:1005400015461EE0751E05D400F0A4F93032625540
:100550006D1EF9D5B3460122084302D000227F1C4C
:1005600004E02078302801D100227F1E002A09975C
:1005700086D01DE0112D07DA00F08CF9303262557B
:100580006D1C50EA0102F5D1084302D00098C8B1B1
:100590000EE00021681E05E0235C625C6354225477
:1005A000401E491C8142F7DBAB46A81B401E099048
:1005B000002004F80B000B98099AC0F80880C0E9E5
:1005C000002B7CE711264FF0000859E72DE9F04F8A
:1005D00088460446D21D22F0070191B0D1E90001FE
:1005E000CDE90A0103F090F902460B98C00F01D043
:1005F0002D2007E02068810701D52B2002E0202173
:1006000001EAC000032A099001D0072A05DB03464E
:100610004146204600F084F90BE12078800601D5A0
:10062000E06900E00620B8F1650F814606D0B8F118
:10063000660F18D0B8F1670F70D131E00020B9F122
:10064000110F009001DB112301E009F101030AAA57
:1006500001A90CA8FFF7E4FEDDE90C70002609F102
:100660000105834647E001204B4600904FF00047CC
:100670000AAA01A90CA8FFF7D3FEDDE90DB00C9979
:100680005D46002610B909F101000D18B9EB05000F
:1006900003D4C0F1FF3609F10105A5EB09002BE0F9
:1006A000B9F1010F01DA4FF001090020B9F1110F82
:1006B0000090484601DD112300E003460AAA01A983
:1006C0000CA8FFF7ADFEDDE90C704D460026834611
:1006D000207800070AD4AB4500DA5D4601A8012D59
:1006E00004DD411911F8011C302907D04F4502DA09
:1006F00017F1040F04DA012082460FE06D1EEEE7C9
:10070000002F02DCED1B3E4403E0781CA84200DD14
:100710007D1CB81B00F1010A4FF00047207800074C
:1007200003D4AA4501DB4FF0FF3A0021B7F1004F97
:100730000DF143088DF8431024D002202B23002F05
:1007400001DA7F422D230A21021EA0F1010000DC04
:100750005FB197FBF1FC97FBF1F201FB1C7C1746A4
:100760000CF1300C08F801CDEEE7A8F101000370A0
:100770002188090501D5452100E06521A0F1010886
:1007800000F8011C09980FA9A1EB0807FF1D00B193
:100790000120411901EBEA70A1693844081A401E92
:1007A000A0612078C00602D42046AFF300800998EB
:1007B00028B1D4E901219047206A401C20622078AA
:1007C000C00622D52046AFF300801EE0002E04DBD9
:1007D000B34502DD01A8805D00E03020D4E90121AD
:1007E0009047206A401C2062761CAAF101005FEA53
:1007F000000A0AD100F04AF8C0680168405CD4E9F8
:1008000001219047206A401C2062281EA5F10105A5
:10081000DCDC07E0D4E9012118F8010B9047206ADD
:10082000401C2062381EA7F10107F3DC2046AFF31D
:100830000080032011B043E601694A1C0261087878
:10084000704700B58FB0CDE9013100210591054910
:100850007944CDE9031011466846FFF7F1FC0FB06B
:1008600000BD0000E5FFFFFF074B70B50D467B4460
:10087000FFF7E7FF0446284600F000F910B14FF0FB
:10088000FF3070BD204670BD133300000048704734
:10089000D810002030B5B0F10A024FEA900E71F185
:1008A00000034EEA817EB0EB0E0061EB91014FEA4E
:1008B000101E4EEA017E10EB0E0041EB11114FEAC3
:1008C000102E4EEA016E10EB0E0041EB11214FEAA3
:1008D000104E4EEA014E10EB0E0041EB1141401854
:1008E00041F100014FEAD00040EA41704FEAD101E6
:1008F00010EB80054FEA810444EA907444EB010454
:100900006D1944EB0404521BA3414FF0000348BF90
:100910000A3200D530BD401C41F1000130BD00005D
:100920002DE9F0411F46044603260168072A01F419
:10093000006004DB08B116A505E016A503E008B1C8
:1009400015A500E015A521F010002060A069C01ECB
:10095000A0610FB1401EA0612046AFF300804FB1EF
:10096000D4E9012138469047206A401C2062C01C0F
:10097000206206E0206AFAE7D4E9012115F8010BAC
:100980009047761EF8D22046AFF30080BDE8F08194
:100990004E414E006E616E00494E4600696E660023
:1009A0002DE9F047814616468AB0334878440DC891
:1009B0008DE80D0030487844801C03AC0DC884E8F5
:1009C0000D0041F69B300844372190FBF1F290FB7B
:1009D000F1F5A5F1800501FB12041B3C02D5644230
:1009E000012000E00020DFF890A080460027FA44B4
:1009F000AAF1BE0A0DE0E00709D03246684607EBCF
:100A000047010AEB810100F032FB8DE8070064101A
:100A10007F1C002CEFD1184F7F44AC3F18E0E80753
:100A200014D007EB04100DF1180A90E80E008AE8C4
:100A30000E00C068F04201D198190890324606A90C
:100A400003A800F014FB03AB83E807006D10641CDF
:100A5000002DE4D132466946B8F1000F03A802D058
:100A600000F0F1FA01E000F002FBC9E90001C9F869
:100A700008200AB0BDE8F08774410000007B00F058
:100A80008000704700487047B81000207546FFF797
:100A9000F9FFAE4605006946534620F0070085463B
:100AA00018B020B5FFF7ACFBBDE820404FF00006C2
:100AB0004FF000074FF000084FF0000B21F0070146
:100AC000AC46ACE8C009ACE8C009ACE8C009ACE889
:100AD000C0098D4670470446AFF300802046FFF7FB
:100AE0007BFB00004FF0013C50F8042B51F8043B15
:100AF0009A4221D1A2EB0C03934313EACC1317D1F2
:100B000050F8042B51F8043B9A4215D1A2EB0C0388
:100B1000934313EACC130BD150F8042B51F8043B48
:100B20009A4209D1A2EB0C03934313EACC13DBD016
:100B30004FF00000704700BFD01A01BAB1FA81F13E
:100B400001F0180122FA01F0CB40C1F12001DBB223
:100B5000C0B2C01A2CFA01F3D11A914311EAC311A1
:100B6000E6D170475FEA400C08BF91F0000F4FEAF2
:100B70008C234FEAC12243EA51514FEA1C5018BF5F
:100B800000F5F0404FEA300018BF41F000415FEA45
:100B90006C5C00F02980BCF1FF3F08BF40F0804052
:100BA0007047130C06BF12044FF0100C4FF0000CEE
:100BB000130E04BF12020CF1080C130F04BF120134
:100BC0000CF1040C930F04BF92000CF1020CD30F34
:100BD00004BF52000CF1010C11464FF00002A0F1CD
:100BE0001F00A0EB0C00704711F0004F08BF7047CA
:100BF00031F000413FF4D5AF0B0C06BF09044FF0B4
:100C0000100C4FF0000C0B0E04BF09020CF1080C85
:100C10000B0F04BF09010CF1040C8B0F04BF8900FA
:100C20000CF1020CCB0F04BF49000CF1010CCCF10C
:100C30002003A0EB0C0022FA03F302FA0CF241EAC3
:100C4000030100F10100704720F07F4C80EA0300AF
:100C500023F07F47ACEB070303F57C5300F0004023
:100C600003F1FF032DE980494FEA154B09B44FEA20
:100C7000144325EA0B4E24EA03480FF2042606EB40
:100C8000132749083E785FEA320203FB0667C7F57F
:100C9000000707FB06F64FEA54374FEAD64606F13F
:100CA000020607FB066CCCF1005C4FEA1C472CEAFD
:100CB000074C07FB06F40CFB06F504EB15464FEA60
:100CC000961634BF00204FF000404FEAD13706FBA4
:100CD00007FC4FEA1C4C0CFB0BF7D21B03FB0CF779
:100CE00061EB07010CFB0EF7B0EB074072EB17420C
:100CF0000CFB08F734BFA2EB0742B2EB074261EBF3
:100D000017414FEA0C444FEA910706FB07FC4FEAF4
:100D10001C4C0CFB0BF7B0EBC74072EB573203FBDC
:100D20000CF734BFA2EBC742B2EBC74261EB5731BD
:100D30000CFB0EF7B0EBC70072EB57720CFB08F719
:100D400034BFA2EBC702B2EBC70261EB5771039F3E
:100D50004FEA816141EA921104EBCC044FEAD137AA
:100D60004FEA826206FB07FC42EA90124FEA80607B
:100D70004FEA1C4C0CFB0BF7D21B03FB0CF761EB8F
:100D800007010CFB0EF7B0EB074072EB17420CFBB0
:100D900008F734BFA2EB0742B2EB074261EB174101
:100DA0004FEA8C554FEA910704EB9C2406FB07FCA5
:100DB0004FEA1C4C0CFB0BF7B0EBC74072EB573201
:100DC00003FB0CF734BFA2EBC742B2EBC74261EBA7
:100DD00057310CFB0EF7B0EBC70072EB57720CFBF0
:100DE00008F734BFA2EBC702B2EBC70261EB577141
:100DF00015EB4C254FEA816141EA92114FEA82627C
:100E00004FEAD13742EA901206FB07FC44F1000496
:100E10004FEA80604FEA1C4C0CFB0BF7D21B03FB24
:100E20000CF761EB07010CFB0EF7B0EB074072EB20
:100E300017420CFB08F734BFA2EB0742B2EB0742A4
:100E400061EB174115EB1C154FEA813141EA9241E4
:100E50004FEA823242EA90424FEA80304FEA0C7603
:100E600044F1000448EA03434EEA0B484FF0000EF9
:100E7000B2EB080C71EB030724BF624639464EEB18
:100E80000E0E4FF0000B0018524149414BEB0B0B7B
:100E9000B2EB080C71EB03077BF1000B24BF624639
:100EA00039464EEB0E0E4FF0000B001852414941EF
:100EB0004BEB0B0BB2EB080C71EB03077BF1000B58
:100EC00024BF624639464EEB0E0E51EA020718BFA8
:100ED00046F0010616EB0E7655F1000254F10001C2
:100EE00003D5BDE88901BDE80088BDE88901BDE8FA
:100EF0000048B619524141EB0101A3F101037047CB
:100F000080807F7E7D7C7B7A797877767675747346
:100F1000727171706F6E6E6D6C6C6B6A6A69686805
:100F2000676666656464636362616160605F5F5E9B
:100F30005E5D5D5C5C5B5B5A5A5959585857575611
:100F40005655555554545353525252515150505076
:100F50004F4F4F4E4E4D4D4D4C4C4C4B4B4B4A4AC8
:100F60004A4949494848484747474746464645450C
:100F70004544444444434343434242424241414145
:100F8000002B26D4770021D01CB54FEA370703B4D5
:100F90004FF010004FF010014FF000000FBCBDE803
:100FA00010400BF1010BBBF1010F08BF5FEA1707FF
:100FB00022BF12F1010211F101014FF0004143F192
:100FC000000300F0004043EA00007047F9D35708DF
:100FD000DAE746EA064613F1400F4FEA16461FDDF0
:100FE00013F1200FDFBF16430A46002120335B4276
:100FF000C8D0C3F1200746EA064602FA07F74FEACF
:10100000164646EA0706C3F1200722FA03F201FA60
:1010100007F721FA03F14FF0000342EA0702B1E7B4
:1010200046EA020646EA06464FEA164646EA010640
:10103000BCBF46EA0646360C4FF000034FF00002F4
:101040004FF000019EE72DE9C048934630B491E887
:10105000380007C831EA400C48BF34EA430C03D5D6
:10106000FFF7F2FDFFF78CFFF0BCBDE800882DE92B
:10107000C048934630B491E8380007C810F0804F5C
:1010800008BF13F0804F03D100F005F8FFF778FF99
:10109000F0BCBDE8008820F07F4780EA030023F021
:1010A0007F4C07EB0C03A3F57C5300F00040A3F149
:1010B000FE0392F0000F00F0B38095F0000F00F0F7
:1010C00077802DE901494FEA11404FEA144621EAA1
:1010D000004800FB06FC24EA064708FB06F607FB6F
:1010E00008F800FB07F718EB06484CEB164C4FEAE4
:1010F000124B18EB07484FEA15464CEB174022EA13
:101100000B4E0BFB06FC25EA06470EFB06F607FB1B
:101110000EFE0BFB07F71EEB064E4CEB164C4FF08A
:1011200000061EEB074E4CEB174B18EB0B0840F17B
:10113000000018EB0E0B58EB000840F100008F1A6E
:101140004FF000013CBFC943661B14BFB5EB040C54
:1011500000213CBFC943F61B4FEA17444EEA8E0EEE
:1011600027EA04454FEA1C4704FB07622CEA074CB8
:1011700005FB07F70CFB05F604FB0CFC16EB07461A
:1011800042EB174216EB0C4642EB1C421BEB0606E9
:1011900058EB0202414146EA9E0601D5BDE80189AD
:1011A000B619524141EB0101A3F10103BDE80189E8
:1011B0004FEA14454FEA114724EA054621EA074C55
:1011C00005FB07F406FB07F70CFB06F105FB0CFC1F
:1011D00011EB074144EB17444FEA124711EB0C4166
:1011E00044EB1C4422EA074C05FB07F206FB07F719
:1011F0000CFB06F605FB0CFC16EB074642EB174210
:1012000016EB0C4642EB1C456A1854F1000148BF2E
:101210007047B619524141EB0101A3F10103704738
:1012200095F0000F37D04FEA11424FEA144721EAF8
:10123000024624EA074C02FB07F106FB07F70CFB0A
:1012400006F402FB0CFC14EB074441EB17414FEA98
:10125000154714EB0C4441EB1C4125EA074C02FBFB
:1012600007F506FB07F70CFB06F602FB0CFC16EB7A
:10127000074645EB174516EB0C4645EB1C42121989
:1012800051F1000148BF7047B619524141EB0101CD
:10129000A3F1010370474FEA14454FEA114724EACE
:1012A000054621EA074C05FB07F106FB07F70CFB97
:1012B00006F24FF0000605FB0CFC12EB074241EB77
:1012C000174112EB0C4251EB1C4148BF704792187A
:1012D00041EB0101A3F10103704770B504460025FD
:1012E0002068806800F00100F0B12068806820F07C
:1012F00001002168886001F019F805460EE001F050
:1013000015F8401B022809D9A06A40F01000A0621D
:10131000E06A40F00100E062012070BD2068806852
:1013200000F001000028EAD10020F6E770B505467C
:101330006C6AA06A00F05000E0B9A06A40F4007046
:10134000A0622068806800F46020B0F5602F0DD1A5
:10135000207B58B9A06A20F48070A062A06A00F4D3
:10136000805018B9A06A40F00100A062204600F049
:10137000BFF903E0206A016B2846884770BD70B54D
:1013800005466C6AA06A40F04000A062E06A40F046
:101390000400E062204600F0ADF970BD70B504466F
:1013A000656A284600F0A5F970BD000038B504460E
:1013B0000025002000902068806800F0010080BBBC
:1013C0002068806840F00100216888601648006845
:1013D0001649B0FBF1F0009002E00098401E00902A
:1013E00000980028F9D100F0A1FF054613E000F0B5
:1013F0009DFF401B02280ED9A06A40F01000A06299
:10140000E06A40F00100E06200BF002084F82400A0
:1014100000BF012038BD2068806800F0010000286E
:10142000E5D00020F6E700000000002040420F0059
:1014300000BFFEE70748006800F0020040B101204D
:10144000054908700348406840F0020001494860BF
:1014500070470000000002401900002030B590F8ED
:1014600040500124AC40C56B6C6004686360446804
:10147000102C04D10468A2600468E16003E00468F1
:10148000A1600468E26030BD70470000F8B5044612
:1014900000260020009000BF94F82400012801D10C
:1014A0000220F8BD012084F8240000BF2046FFF789
:1014B00014FF0646002E62D1A06A20F4885040F046
:1014C0000200A062022000F0D5FF30490968B1FB9C
:1014D000F0F04000009002E00098401E009000985C
:1014E0000028F9D12046FFF761FF2068806840F0AE
:1014F00008002168886000F019FF054611E000F03F
:1015000015FF401B0A280CD9A06A20F0020040F009
:101510001000A06200BF002084F8240000BF01205A
:10152000BFE72068806800F008000028E7D1206845
:10153000806840F004002168886000F0F7FE0546EE
:1015400011E000F0F3FE401B0A280CD9A06A20F03D
:10155000020040F01000A06200BF002084F82400C8
:1015600000BF01209DE72068806800F0040000288B
:10157000E7D1A06A20F0020040F00100A06200BFA5
:10158000002084F8240000BF30468AE700000020D5
:1015900038B5024600230020009000BF92F82400D6
:1015A000012801D1022038BD012082F8240000BFAB
:1015B0004868072812D21068406B0C79641E04EB4F
:1015C00084051F24AC40A0430D796D1E05EB8505F5
:1015D0000C68AC4020431468606327E048680D281D
:1015E00012D21068006B0C79E41F04EB84051F24F1
:1015F000AC40A0430D79ED1F05EB85050C68AC40B0
:1016000020431468206311E01068C06A0C790D3C17
:1016100004EB84051F24AC40A0430D790D3D05EB80
:1016200085050C68AC4020431468E06208680A280D
:1016300012D31068C0680C780A3C04EB44050724F8
:10164000AC40A0430D780A3D05EB45058C68AC40E5
:1016500020431468E0600FE0106800690C7804EB28
:1016600044050724AC40A0430D7805EB45058C6884
:10167000AC402043146820610868102802D0086834
:10168000112827D1174C1068A0421ED1106880681D
:1016900000F40000F0B91068806840F4000014689D
:1016A000A0600868102815D10F4800680F4CB0FBE7
:1016B000F4F000EB80004000009002E00098401E33
:1016C000009000980028F9D104E0906A40F02000D2
:1016D0009062012300BF002082F8240000BF18465A
:1016E00061E70000002401400000002040420F009C
:1016F00070477047704701460868C06C704700002B
:101700002DE9F0410446002700250026A84614B91B
:101710000120BDE8F081A06810B1207D00B100BFBC
:10172000A06A30B90020E06284F82400204600F06E
:1017300097F82046FFF7D1FD0746A06A00F0100099
:10174000002873D1002F7ED1A06A20F4885040F089
:101750000200A0623F4AD4E90001904208D1E0694A
:10176000B0F5402F02D14FF4002002E0E06900E024
:10177000E0690143207B41EA40000643A068B0F5E0
:10178000807F02D0A068012802D14FF4807000E071
:1017900000200543207D012811D1207B38B9A069A4
:1017A000401E4FF4006141EA4030054307E0A06A63
:1017B00040F02000A062E06A40F00100E062206892
:1017C000406820F4694028432168486020688068A8
:1017D00021490840304321688860A068B0F5807FC7
:1017E00002D0A068012802D14FF4807000E00020F0
:1017F000B0F5807F03D1208A401E4FEA0058206850
:10180000C06A20F4700040EA08002168C8622068BD
:10181000806812490840B04209D10020E062A06A05
:1018200020F0020040F00100A06211E00BE0A06A8D
:1018300020F0020040F01000A062E06A40F00100D9
:10184000E062012704E0A06A40F01000A0620127D6
:1018500038465EE7003C0140FDF7E1FFFE0E1FFF4A
:1018600010B58CB004461A49206888422ED1182140
:1018700002A8FEF7A9FD00BF1648806940F00400E9
:10188000144988610846806900F00400019000BF97
:1018900000BF00BF0846806940F4007088610846B8
:1018A000806900F40070019000BF00BF0120089023
:1018B0000320099008A9084800F088FB0220029044
:1018C0008003049002A800F06FFE00BF0CB010BDB2
:1018D000002401400010024000080140F8B5044611
:1018E0000D46002600200090002700F01FFD064650
:1018F0002068806800F4807050B1A06A40F0200039
:10190000A06200BF002084F8240000BF0120F8BDC1
:101910002068406800F48070F8B92068C06A00F45C
:101920007000D0B912E0681C80B125B100F0FEFC57
:10193000801BA8420AD9A06A40F00400A06200BF40
:10194000002084F8240000BF0320E0E7206800683E
:1019500000F002000028E6D050E0022000F08AFDEE
:1019600036490968B1FBF0F021680969344A114031
:1019700091B92168C9689211114069B92168096952
:10198000304A114031B92168C9689211114009B932
:10199000142117E0292115E021680969294A11401D
:1019A00021B92168C9689211114041B121680969C2
:1019B000254A114029B92168C968114009B9542143
:1019C00000E0FC2100FB01F715E0681C80B125B1A7
:1019D00000F0ACFC801BA8420AD9A06A40F00400C9
:1019E000A06200BF002084F8240000BF03208EE71F
:1019F0000098401C00900098B842E6D36FF01200A7
:101A000021680860A06A40F40070A06220688068C5
:101A100000F46020B0F5602F0DD1207B58B9A06A8A
:101A200020F48070A062A06A00F4805018B9A06A07
:101A300040F00100A062002069E7000000000020E3
:101A400024499224922449124992240070B50446F4
:101A5000002500BF94F82400012801D1022070BDA8
:101A6000012084F8240000BF2046FFF79FFC0546B4
:101A7000002D77D1A06A40F20121884340F48070A4
:101A8000A0623C492068884208D13B48006800F4C5
:101A9000702008B9012002E0002000E0012078B1A8
:101AA000A06A20F48010A0622068406800F4806082
:101AB00000B3A06A20F4005040F48050A06219E006
:101AC000A06A40F48010A0622B49091F2068884258
:101AD00003D028492068884204D12748006800F4D0
:101AE000806000E0002028B1A06A20F4005040F49B
:101AF0008050A062A06A00F4805020B1E06A20F01B
:101B00000600E06201E00020E06200BF002084F8EF
:101B1000240000BFC01E216808602068806800F4AF
:101B20006020B0F5602F16D112492068884208D194
:101B30001148006800F4702008B9012002E000207C
:101B400000E0012038B12068806840F4A0002168DE
:101B500088600CE006E02068806840F4801021680E
:101B6000886004E000BF002084F8240000BF2846FD
:101B700075E7000000280140042401402DE9F041F0
:101B800004460D461646002757492068884203D070
:101B900056492068884205D15348001D006800F46A
:101BA000702000E0002000287ED100BF94F82400BF
:101BB000012802D10220BDE8F081012084F8240030
:101BC00000BF2046FFF7F2FB0746002F6DD1A06A49
:101BD00040F60161884340F48070A0624349206868
:101BE000884209D14048001D006800F4702008B9FF
:101BF000012002E0002000E0012078B1A06A20F47A
:101C00008010A0622068406800F4806000B3A06A81
:101C100020F4005040F48050A06219E0A06A40F423
:101C20008010A06230492068884203D02F49206884
:101C3000884205D12C48001D006800F4806000E057
:101C4000002028B1A06A20F4005040F48050A06227
:101C5000A06A00F4805020B1E06A20F00600E06243
:101C600001E00020E06200BF002084F8240000BFF3
:101C70001F48216A88621F48216AC8621E48216A7B
:101C800008636FF00200216808602068806840F4F3
:101C9000807021688860226802F14C0133462A4630
:101CA000206A00F045F901E01AE014E0206880683D
:101CB00000F46020B0F5602F06D12068806840F401
:101CC000A000216888600CE02068806840F48010E3
:101CD0002168886005E000BF002084F8240000E04F
:101CE0000127384667E70000002401400028014032
:101CF0002D1300089D1300087F13000870B50446DB
:101D0000002594F82100022803D00420A0630125B7
:101D1000C1E02068006820F00E002168086020689B
:101D2000006820F00100216808605C492068884252
:101D300052D95A4978392068884201D1012047E0B8
:101D4000564964392068884201D1102040E0534947
:101D500050392068884201D1801539E04F493C391B
:101D60002068884201D1801432E04C49283920682B
:101D7000884202D14FF480302AE048491439206863
:101D8000884202D14FF4801022E044492068884202
:101D900001D140041CE042492068884201D1012061
:101DA00016E03F4914312068884201D110200FE02D
:101DB0003B4928312068884201D1801508E0384924
:101DC0003C312068884201D1801401E04FF480301A
:101DD0003349091F086051E030497839206888424A
:101DE00001D1012047E02D4964392068884201D1A2
:101DF000102040E0294950392068884201D18015DF
:101E000039E026493C392068884201D1801432E00B
:101E1000224928392068884202D14FF480302AE0D4
:101E20001E4914392068884202D14FF4801022E004
:101E30001A492068884201D140041CE018492068F2
:101E4000884201D1012016E01549143120688842EA
:101E500001D110200FE0124928312068884201D1B9
:101E6000801508E00E493C312068884201D1801479
:101E700001E04FF48030094980394860012084F83E
:101E8000210000BF002084F8200000BF606B10B16B
:101E90002046616B8847284670BD000080000240E4
:101EA000080402400146002209B9012070471E4B78
:101EB000086898420BD21D4B0868C01A1423B0FB67
:101EC000F3F08000086419480838C8630AE0164B2C
:101ED0000868C01A1423B0FBF3F0800008641248AD
:101EE0000838C863022081F821000868026843F6B8
:101EF000F0708243D1E901031843CB6818430B69A2
:101F000018434B6918438B691843CB691843024344
:101F10000868026000208863012081F82100002009
:101F200081F8200000BFC1E7080402400800024019
:101F30002DE9F04104460D4616461F464FF00008B5
:101F400000BF94F82000012802D10220BDE8F081F2
:101F5000012084F8200000BF94F8210001282CD132
:101F6000022084F821000020A0632068006820F08F
:101F70000100216808603B46324629462046FFF7AB
:101F80006DFAE06A30B12068006840F00E00216808
:101F900008600BE02068006820F0040021680860F9
:101FA0002068006840F00A00216808602068006826
:101FB00040F001002168086006E000BF002084F8BE
:101FC000200000BF4FF002084046BFE72DE9F84768
:101FD000024600239C467BE14FF0010808FA03F417
:101FE000D1F8008008EA0400A0427DD1DFF8F4A215
:101FF000D1F80480A8EB0A09D0453AD014DCB8F136
:10200000030F50D009DCB8F1000F31D0B8F1010F47
:102010001CD0B8F1020F49D120E0B8F1110F18D04F
:10202000B8F1120F42D11EE0B9F5881F25D006DCA9
:10203000B9F5803F20D0B9F5801F37D11AE0B9F546
:10204000001F18D0B9F5041F30D117E0D1F80CC02B
:102050002DE0D1F80C8008F1040C28E0D1F80C80B8
:1020600008F1080C23E0D1F80C8008F10C0C1EE0FC
:1020700000BF00BF00BF00BF00BF00BFD1F8088095
:10208000B8F1000F02D14FF0040C0BE0D1F808803A
:10209000B8F1010F03D14FF0080C146102E04FF0CA
:1020A000080C546103E04FF0000C00E000BF00BFDB
:1020B000FF2801D8904601E002F104084646FF28B7
:1020C00002D84FEA830803E0A3F108084FEA880822
:1020D0004746D6F800804FF00F0909FA07F928EAB9
:1020E00009080CFA07F900E07AE048EA0908C6F89E
:1020F0000080D1F8048008F08058B8F1805F6FD17B
:1021000000BFDFF8E481D8F8188048F00108DFF854
:10211000D891C9F81880C846D8F8188008F0010886
:10212000CDF8008000BF00BF4FEAB9384FEA9309ED
:1021300058F829504FEA83784FEA18794FF00F0882
:1021400008FA09F825EA0805DFF8A081424502D11E
:102150004FF0000824E0DFF89881424502D14FF0AB
:1021600001081DE0DFF88C81424502D14FF00208E2
:1021700016E0DFF88481424502D14FF003080FE0FA
:10218000DFF87881424502D14FF0040808E0DFF81B
:102190007081424502D14FF0050801E04FF006087A
:1021A0004FEA83794FEA197908FA09F848EA0505F0
:1021B000DFF850814FEA930948F82950D1F804809C
:1021C00008F48038B8F5803F0BD1DFF83C81D8F8AF
:1021D000008048EA0008DFF83091C9F800800AE082
:1021E00075E0DFF82481D8F8008028EA0008DFF8DD
:1021F0001891C9F80080D1F8048008F40038B8F5C7
:10220000003F0ED1DFF8008108F10408D8F8008003
:1022100048EA0008DFF8F09009F10409C9F80080E5
:102220000DE0DFF8E48008F10408D8F8008028EA1F
:102230000008DFF8D49009F10409C9F80080D1F84A
:10224000048008F48018B8F5801F0ED1DFF8B8803C
:1022500008F10808D8F8008048EA0008DFF8A890DC
:1022600009F10809C9F800800DE0DFF89C8008F149
:102270000808D8F8008028EA0008DFF88C9009F1F7
:102280000809C9F80080D1F8048008F40018B8F5EE
:10229000001F0ED1DFF8708008F10C08D8F800801C
:1022A00048EA0008DFF8609009F10C09C9F80080DD
:1022B0000DE0DFF8548008F10C08D8F8008028EA17
:1022C0000008DFF8449009F10C09C9F800805B1C94
:1022D000D1F8008028FA03F8B8F1000F7FF47CAE43
:1022E000BDE8F8870000111000100240000801400E
:1022F000000C014000100140001401400018014092
:10230000001C0140080001400004014010B5C268F3
:1023100021EA020302EA010443EA0443036110BD17
:102320000AB1016101E00B040361704701480068D4
:10233000704700001000002010B50848006840F009
:10234000100006490860052000F080F80F2000F01A
:1023500007F800F02BF8002010BD0000002002401C
:1023600070B504460E4800784FF47A71B1FBF0F076
:102370000C490968B1FBF0F5284600F029FD08B1C9
:10238000012070BD102C07D200222146501E00F003
:102390001EF80548046001E00120F2E70020F0E7A4
:1023A00018000020000000201400002070470146A3
:1023B0000846002809DB00F01F0301229A40430968
:1023C0009B0003F1E023C3F8002100BF70472DE913
:1023D000F05F80460D461646002701F0A9FA074631
:1023E00039462A46334601F00700C0F1070ABAF120
:1023F000040F02D94FF0040A01E0C0F1070AD146E8
:1024000000F1040ABAF1070F02D24FF0000A01E00E
:10241000A0F1030AD4464FF0010A0AFA09FAAAF118
:10242000010A0AEA020A0AFA0CFA4FF0010B0BFA47
:102430000CFBABF1010B0BEA030B4AEA0B04214640
:10244000404601F07DFABDE8F09F000000BF00F0BB
:102450000702064B19684FF6FF031940044B0B4364
:1024600043EA0221014B196000BF70470CED00E008
:102470000000FA052DE9F04385B0064642A30FCBD4
:1024800001AC0FC444A0006800904FF00008002584
:1024900000270024A146042E36D004DC012E3BD0B8
:1024A000022E6BD15FE0082E32D0102E66D13B4851
:1024B0004468006800F0807000B301A8C4F3834151
:1024C000475C04F4803070B134484068C0F3404049
:1024D0001DF8008004F4803040B13148B0FBF8F0C2
:1024E00000FB07F502E02F4807FB00F52B4840688A
:1024F00000F48000B0F5800F01D1A94603E0680028
:102500000321B0FBF1F93AE000F0D2F9814636E060
:1025100000F0CEF9814632E02048046A04F44070AD
:10252000B0F5807F05D104F0020010B14FF40049EE
:1025300018E004F44070B0F5007F07D11748406AF6
:1025400000F0020010B149F640490BE004F440707D
:10255000B0F5407F06D11148006800F4003008B1A2
:102560004FF224490BE000F093F90C494968C1F39C
:102570008131491C4900B0FBF1F900E000BF00BF08
:10258000484605B0BDE8F0830203040506070809C4
:102590000A0B0C0D0E0F101001020000001002407B
:1025A00000127A0000093D00F8B504460026002517
:1025B000207800F0010000286BD000274348C06954
:1025C00000F0805070B900BF4048C06940F08050B2
:1025D0003E49C8610846C06900F08050009000BFC5
:1025E00000BF01273A48006800F48070B0B938484D
:1025F000006840F4807036490860FFF797FE064691
:1026000006E0FFF793FE801B642801D90320F8BD84
:102610002F48006800F480700028F2D02B48006A30
:1026200000F440752DB3A08800F44070A84220D07B
:102630002648006A20F440750120264908600020E1
:1026400008602248056205F0010090B1FFF76EFEB8
:10265000064608E0FFF76AFE801B41F28831884297
:1026600001D90320D3E71948006A00F002000028CE
:10267000F0D01648006A20F440706168084313499E
:102680000862012F04D10846C06920F08050C8615B
:1026900000BF207800F00200022807D10B484068F4
:1026A00020F44040A168084308494860207800F0C1
:1026B0001000102807D10548406820F480006169A7
:1026C0000843024948600020A1E7000000100240D2
:1026D000007000404004424270B504460D460CB9FB
:1026E000012070BD5A48006800F00700A8420ED2D1
:1026F0005748006820F007002843554908600846FD
:10270000006800F00700A84201D00120E9E7207826
:1027100000F0020002281DD1207800F004000428F7
:1027200005D14C48406840F4E0604A494860207850
:1027300000F00800082805D14648406840F4605081
:10274000444948604348406820F0F000A1680843CD
:1027500040494860207800F0010078B360680128A3
:1027600006D13C48006800F4003090B90120B8E779
:102770006068022806D13748006800F0007040B950
:102780000120AEE73348006800F0020008B90120DC
:10279000A7E73048406820F00300616808432D49EE
:1027A0004860FFF7C3FD064609E0FFF7BFFD801B49
:1027B00041F28831884202D9032092E707E0254898
:1027C000406800F00C006168B0EB810FEDD120484B
:1027D000006800F00700A8420ED91D48006820F0EC
:1027E000070028431A4908600846006800F00700FF
:1027F000A84201D0012074E7207800F004000428EA
:1028000007D11448406820F4E060E16808431149AA
:102810004860207800F00800082808D10D4840687A
:1028200020F46050216940EAC1000A49486000F084
:102830003FF808494968C1F30311074A515CC84091
:102840000649086006480068FFF78AFD002048E74F
:1028500000200240001002407C4A000800000020D6
:1028600014000020014800687047000000000020AC
:1028700000B5FFF7F7FF04494968C1F30221034A95
:10288000515CC84000BD0000001002408C4A0008A6
:1028900000B5FFF7E7FF04494968C1F3C221034AC5
:1028A000515CC84000BD0000001002408C4A000886
:1028B000F0B585B00FF26C0C9CE8E01001A8A0E820
:1028C000E0101CA52D6800950021002200230024A3
:1028D0000020194D696801F00C05F5B1042D02D0F6
:1028E000082D19D101E0154819E001ADC1F3834667
:1028F000AC5D01F4803555B10F4D6D68C5F34045B1
:102900001DF805200D4D6543B5FBF2F302E00C4DBB
:1029100004FB05F3184602E000BF084800BF00BFF3
:1029200005B0F0BD02030405060708090A0B0C0DEB
:102930000E0F1010010200000010024000127A0079
:1029400000093D00F8B504460CB90120F8BD207817
:1029500000F00100002878D0F848406800F00C0032
:1029600004280CD0F548406800F00C00082811D16C
:10297000F248406800F48030B0F5803F0AD1EF485B
:10298000006800F4003000285FD0606800285CD147
:102990000120DBE700BF6068B0F5803F06D1E74863
:1029A000006840F48030E549086028E0606858B964
:1029B000E248006820F48030E0490860084600687A
:1029C00020F4802008601AE06068B0F5A02F0BD1D9
:1029D000DA48006840F48020D8490860084600685A
:1029E00040F4803008600AE0D448006820F4803069
:1029F000D24908600846006820F48020086000BFC3
:102A0000606888B1FFF792FC054606E0FFF78EFC90
:102A1000401B642801D9032098E7C848006800F4E7
:102A200000300028F2D010E0FFF780FC054606E0F9
:102A3000FFF77CFC401B642801D9032086E7BF48D0
:102A4000006800F400300028F2D1207800F0020085
:102A5000022857D1B948406800F00C0050B1B7487F
:102A6000406800F00C00082818D1B448406800F411
:102A7000803098B9B148006800F0020020B12069A8
:102A8000012801D0012061E7AC48006820F0F8007F
:102A9000616940EAC100A949086033E02069E8B1F2
:102AA0000120A7490860FFF741FC054606E0FFF753
:102AB0003DFC401B022801D9032047E79F480068DE
:102AC00000F002000028F2D09C48006820F0F800D6
:102AD000616940EAC1009949086013E00020984903
:102AE0000860FFF723FC054606E0FFF71FFC401BCC
:102AF000022801D9032029E79048006800F002006D
:102B00000028F2D1207800F0080008282DD1A06913
:102B1000B8B101208B490860FFF708FC054606E0C4
:102B2000FFF704FC401B022801D903200EE783486D
:102B3000406A00F002000028F2D0012000F054FCAE
:102B400013E000207F490860FFF7F0FB054606E030
:102B5000FFF7ECFB401B022801D90320F6E677487B
:102B6000406A00F002000028F2D1207800F0040052
:102B7000042873D100277148C06900F0805070B9F3
:102B800000BF6E48C06940F080506C49C86108467B
:102B9000C06900F08050009000BF00BF01276A4864
:102BA000006800F48070B0B96748006840F4807035
:102BB00065490860FFF7BAFB054606E0FFF7B6FB7C
:102BC000401B642801D90320C0E65F48006800F478
:102BD00080700028F2D000BFE068012806D1574875
:102BE000006A40F001005549086227E0E06858B9E2
:102BF0005248006A20F00100504908620846006A05
:102C000020F00400086219E0E06805280BD14B4869
:102C1000006A40F00400494908620846006A40F032
:102C2000010008620AE04548006A20F001004349BB
:102C300008620846006A20F00400086200BFE068ED
:102C4000A0B1FFF773FB054609E0FFF76FFB401BE0
:102C500041F28831884202D9032077E622E03748E2
:102C6000006A00F002000028EFD012E0FFF75EFBE0
:102C7000054608E0FFF75AFB401B41F288318842C5
:102C800001D9032062E62D48006A00F00200002806
:102C9000F0D1012F05D12948C06920F08050274983
:102CA000C86100BFE069C8B32448406800F00C0068
:102CB000082860D0E069022848D100202049086631
:102CC000FFF734FB054606E0FFF730FB401B022808
:102CD00001D903203AE61948006800F00070002886
:102CE000F2D1206AB0F5803F07D11448406820F443
:102CF0000030A168084311494860D4E9080108433D
:102D00000E49496821F4741108430C4948600120B8
:102D10000B490866FFF70AFB054607E03DE0FFF7B1
:102D200005FB401B022801D903200FE60348006879
:102D300000F000700028F2D02FE0000000100240E8
:102D400000004242800442420070004000201449CA
:102D50000866FFF7EBFA054606E0FFF7E7FA401BC7
:102D6000022801D90320F1E50E48006800F0007048
:102D70000028F2D111E0E069012800D1E6E5094818
:102D8000466806F48031206A814204D106F470114D
:102D9000606A814201D00120D8E50020D6E500001C
:102DA0000000424200100240042808D14FF0E02108
:102DB000096941F004014FF0E022116107E04FF092
:102DC000E021096921F004014FF0E0221161704710
:102DD00070B504462546681EB0F1807F01D30120FE
:102DE0000FE0681E4FF0E02148610F214FF0FF30E7
:102DF00000F0A6FD00204FF0E02188610720086167
:102E0000002070BD704700002DE9F047044620689F
:102E100005682068C668206847694FF00008C14609
:102E200005F00F08B8F1000F0AD105F0200038B105
:102E300006F0200020B1204600F016FBBDE8F08728
:102E4000B8F1000F71D007F0010018B906F49070C6
:102E500000286AD005F0010030B106F4807018B186
:102E6000E06B40F00100E06305F0040030B107F0D2
:102E7000010018B1E06B40F00200E06305F00200D1
:102E800030B107F0010018B1E06B40F00400E063DE
:102E900005F0080048B106F0200010B907F0010065
:102EA00018B1E06B40F00800E063E06B68B305F038
:102EB000200028B106F0200010B1204600F0D4FA1E
:102EC00020684069C0F38019E06B00F0080010B979
:102ED000B9F1000F22D0204600F0A6FA2068406920
:102EE00000F04000B0B12068406920F04000216847
:102EF0004861606B50B11848616B4863606BFEF7C6
:102F0000FDFE10B1606B416B88470CE02046FFF777
:102F100079FF08E02046FFF775FF04E02046FFF741
:102F200071FF0020E06389E7FFE705F0800030B122
:102F300006F0800018B1204600F064FB7EE705F043
:102F4000400030B106F0400018B1204600F07CFA95
:102F500074E700BF72E700001534000810B504469E
:102F60000CB9012010BDA06900B100E000BF94F8C9
:102F7000390028B9002084F83800204600F028F8ED
:102F8000242084F839002068C06820F400502168AB
:102F9000C860204600F0B8FA2068006920F490402C
:102FA000216808612068406920F02A002168486192
:102FB0002068C06840F400502168C8600020E063C9
:102FC000202084F8390084F83A000020CAE7000085
:102FD00010B586B004468749206888424BD100BFAF
:102FE00000BF8548806940F0040083498861084635
:102FF000806900F00400019000BF00BF00BF00BF67
:1030000000BF0846806940F0040088610846806976
:1030100000F00400019000BF00BF00BF00BF00BF70
:103020000846806940F4804088610846806900F461
:103030008040019000BF00BF00BF481502900220F1
:103040000390012004900320059002A96B48FEF72D
:10305000BDFF4FF4806002900020039002A96748F2
:10306000FEF7B4FF2520FFF7A2F903221146252021
:10307000FFF7ADF9BBE062492068884259D100BF33
:1030800000BF5D48806940F004005B4988610846E4
:10309000806900F00400019000BF00BF00BF00BFC6
:1030A00000BF0846806940F00400886108468069D6
:1030B00000F00400019000BF00BF00BF00BF00BFD0
:1030C0000846C06940F40030C8610846C06900F491
:1030D0000030019000BF00BF00BF0420029002201A
:1030E0000390002004900320059002A94348FEF7B6
:1030F0006DFF0820029000200390049003200590AB
:1031000002A93E48FEF762FF002211462620FFF783
:103110005EF92620FFF74BF92068C06840F02000D8
:103120002168C8602068C06840F010002168C8604D
:103130005DE034492068884259D100BF00BF2E4865
:10314000806940F008002C4988610846806900F0D9
:103150000800019000BF00BF00BF00BF00BF0846CD
:10316000806940F0080088610846806900F0080026
:10317000019000BF00BF00BF00BF00BF0846C0698C
:1031800040F48020C8610846C06900F480200190A6
:1031900000BF00BF00BF081502900220039000206E
:1031A00004900320059002A91748FEF70FFF4FF483
:1031B000006002900020039004900320059002A973
:1031C0001148FEF703FF002211462720FFF7FFF802
:1031D0002720FFF7ECF82068C06840F02000216845
:1031E000C8602068C06840F010002168C86006B060
:1031F00010BD0000003801400010024000080140EE
:103200000044004000480040000C01402DE9F84F08
:1032100004460E46174699464FF0000A94F83A00C5
:1032200020285DD106B117B90120BDE8F88F00BF95
:1032300094F83800012801D10220F6E7012084F833
:10324000380000BF0020E063222084F83A00FFF736
:103250006DF88246A785E785A068B0F5805F04D148
:10326000206910B90025B04602E035464FF000084D
:1032700000BF002084F8380000BF29E05346002238
:1032800020212046CDF8009000F0ECF908B1032091
:10329000CBE745B920684068C0F30800A8F80000F3
:1032A00008F1020811E0A068B0F5805F03D0A068C3
:1032B00028B9206918B920684068287004E020689F
:1032C000406800F07F0028706D1CE08D401EE08596
:1032D000E08D0028D2D1202084F83A000020A4E715
:1032E0000220A2E710B5034693F83A0020282FD118
:1032F00001B10AB9012010BD00BF93F838000128C0
:1033000001D10220F7E7012083F8380000BF99625D
:103310009A85DA850020D863222083F83A0000BF1E
:10332000002083F8380000BF1868C06840F480703F
:103330001C68E0601868406940F001001C6860612A
:103340001868C06840F020001C68E0600020D2E7E8
:103350000220D0E71D4A0168914236D11C490988F4
:1033600001F4004189BB1A49098801F4804171B117
:10337000184909780A2903D00021154A118024E050
:103380001349098841F40041114A11801DE0114997
:1033900009780D2906D10E49098841F480410C4A6B
:1033A000118012E00B490978094A1288C2F30D0214
:1033B000094B995406490988491C054A1180114650
:1033C0000988C72901DD00211180704700380140BC
:1033D0000C0000200E0000201C000020704700BFE1
:1033E000FEE700BFFEE7704708B508490968C9084D
:1033F0004FF47A72B1FBF2F14143009100BF00BF7C
:1034000000994A1E00920029F9D108BD0000002051
:103410007047704770B505466C6A0020E085E0840F
:103420002046FFF7EFFC70BD0168C96821F4907178
:103430000268D1600168496921F0010102685161A7
:10344000202180F83A10704710B504462068C06803
:1034500020F040002168C860202084F83900204610
:10346000FFF7BCFF002010BD70B5044694F83A0089
:10347000222847D1A068B0F5805F0CD1206950B9EF
:103480000025A66A20684068C0F308003080A06A62
:10349000801CA06215E0A56A0026A068B0F5805FD8
:1034A00003D0A06828B9206918B92068406828703E
:1034B00004E02068406800F07F002870A06A401C8B
:1034C000A062E08D401E80B2E085C8B92068C06867
:1034D00020F020002168C8602068C06820F4807057
:1034E0002168C8602068406920F0010021684861B7
:1034F000202084F83A002046FFF72CFF002070BD02
:103500000020FCE70220FAE770B50446216809694B
:1035100021F44051E2681143226811612269A168D7
:103520001143626941EA02052168C96841F20C62EF
:10353000914329432268D1602168496921F440718F
:10354000A2691143226851612D4A2168914202D13A
:10355000FFF79EF901E0FFF78BF900EBC00101EBEB
:10356000001162689200B1FBF2F100EBC00202EBC5
:10357000001263689B00B2FBF3F26423B2FBF3F228
:1035800002EBC20303EB0212A1EB8201322202EB37
:1035900001116422B1FBF2F101F0F00100EBC00275
:1035A00002EB001263689B00B2FBF3F26423B2FBF0
:1035B000F3F201EB021200EBC00101EB00116368B2
:1035C0009B00B1FBF3F100EBC00303EB0013666853
:1035D000B600B3FBF6F36426B3FBF6F303EBC306C6
:1035E00006EB0313A1EB8301322303EB01116423E8
:1035F000B1FBF3F101F00F0111442268916070BD3D
:1036000000380140014691F83900212828D1886806
:10361000B0F5805F0BD1086948B90A6A1088C0F319
:1036200008000B685860086A801C086205E00B6A95
:10363000581C086218780B685860C88C401E80B20D
:10364000C88458B90868C06820F080000B68D8604A
:103650000868C06840F040000B68D86000207047E0
:103660000220FCE72DE9F04104460D461746984636
:10367000069E21E0701CF8B12EB1FEF757FEA0EBBC
:103680000800B04218D92068C06820F4D0702168C2
:10369000C8602068406920F001002168486120204E
:1036A00084F8390084F83A0000BF002084F838001C
:1036B00000BF0320BDE8F081206800682840A842D0
:1036C00001D1012000E00020B842D3D00020F1E772
:1036D00010B50648FFF798FB00BF012204490348D4
:1036E000FFF700FE0028F8D110BD0000E400002024
:1036F0000E0000201CB53F4800680068C0F3C00001
:1037000090B100BF002000903A4800680068009027
:10371000384800684068009000BF00BF3548006826
:103720000068344800684068324800680068C0F3A8
:10373000401020B34FF0FF33012201A92D48FFF7BD
:1037400065FD2D48B0F80004C0F30E0040F2FF31D3
:10375000884215DA9DF804002749B1F80014C1F336
:103760000E01254A50541046B0F80004401C114682
:10377000B1F8001460F30E011046A0F800141BE02D
:103780001D48B0F800046FF30E001B49A1F80004B7
:103790009DF80400B1F80014C1F30E01164A50540C
:1037A0001046B0F80004401C1146B1F8001460F354
:1037B0000E011046A0F800140E4800680068C0F31F
:1037C0000010B0B10C48B0F8000420F4004000F53F
:1037D00000400949A1F8000400BF002000900548FE
:1037E000006800680090034800684068009000BFCF
:1037F00000BF1CBD24010020640100201CB53F480F
:1038000000680068C0F3C00090B100BF00200090C5
:103810003A480068006800903848006840680090A6
:1038200000BF00BF35480068006834480068406841
:10383000324800680068C0F3401020B34FF0FF33F7
:10384000012201A92D48FFF7E1FC2D48B0F800083E
:10385000C0F30E0040F2FF71884215DA9DF80400B3
:103860002749B1F80018C1F30E01254A50541046FB
:10387000B0F80008401C1146B1F8001860F30E01C2
:103880001046A0F800181BE01D48B0F800086FF3C0
:103890000E001B49A1F800089DF80400B1F80018BB
:1038A000C1F30E01164A50541046B0F80008401CEF
:1038B0001146B1F8001860F30E011046A0F8001888
:1038C0000E4800680068C0F30010B0B10C48B0F8B2
:1038D000000820F4004000F500400949A1F8000864
:1038E00000BF002000900548006800680090034871
:1038F00000684068009000BF00BF1CBD6807002042
:10390000A807002000BFFEE7490050EAC12018BF09
:1039100004204A0D18BF40F0010040F2FF72B2EBE4
:10392000515F08BF40F00200012808BF0520704722
:1039300002480068C0F30220704700000CED00E070
:1039400010B5002804DB0A07130E054A135406E0DD
:103950000A07140E034A00F00F031B1FD45410BDB6
:1039600000E400E018ED00E030380A2801D2012020
:1039700070470020704700BF7047FEB506460C46F2
:1039800015461F460094019507200290694630466F
:10399000FDF7FEFDFEBD000010B504460723012221
:1039A00021460748FFF7E9FF0548FEF74FF80A21CF
:1039B0000348FDF793FF0248FDF79DFE80B210BD5E
:1039C000EC0F002010B50B480B4908600020486040
:1039D0000021094881600173012101610021017505
:1039E00081614FF46021C161FDF78AFE0248FDF755
:1039F0004DFD10BD00240140EC0F002001B584B046
:103A000000BF3048406940F001002E494861084637
:103A1000406900F00100009000BF00BF2A482B4918
:103A20000860002048600021284881608021C16032
:103A30004900016189004161002181614FF4805199
:103A4000C161FEF72FFA00BF2048214908620846ED
:103A50001E49486200BF1F481D4908600020486099
:103A60004FF480711A4881600121017301610021C6
:103A7000017581614FF46021C161FDF741FE144879
:103A8000FDF704FD00200190012002900720039023
:103A900001A90F48FDF77CFD032211460B20FEF71C
:103AA00096FC0B20FEF783FC00230A494C310748A3
:103AB000049AFEF73DFA002204A90548FEF75EF8D5
:103AC00005B000BD00100240080002401C1000209C
:103AD000601000200024014010B5044600204FF083
:103AE000E0210861FFF760F92046E11704EB51710E
:103AF000C1F3CF01014A118010BD00000400002075
:103B000070B504464FF47A7094FBF0F594FBF0F135
:103B100000FB114603E0074800F00EF86D1E002D73
:103B2000F9D12EB14FF47A7106FB01F000F004F8E0
:103B300070BD000040420F000146114A12884A43FE
:103B40004FF0E0235A6100229A611A46126942F04E
:103B500001021A6100BF4FF0E022106900F001027B
:103B60001AB100F48032002AF5D04FF0E022126939
:103B700022F001024FF0E0231A6100229A6170479F
:103B80000400002000BF054A126802F04002002A2B
:103B9000F9D0C2B2014B1B1D1A60704700380140BA
:103BA00000B585B000BF00BF1E48806940F0080026
:103BB0001C4988610846806900F00800009000BF39
:103BC00000BF00BF00BF00BF0846806940F0400052
:103BD00088610846806900F04000009000BF00BF87
:103BE00000BF202001900120029003900320049048
:103BF00001A90D48FEF7EAF92020019001A90B4820
:103C0000FEF7E4F900BF012220210748FEF788FBF8
:103C100000BF00BF012220210448FEF781FB00BF46
:103C200005B000BD00100240000C0140001801402A
:103C300086B0FEF781FB4FF4E01000F041F9482018
:103C4000FFF74AFF4FF4E13000F066F9FFF7A8FFF5
:103C5000FFF7B8FE6D48FFF7D1FE00BF6C488069E2
:103C600040F004006A4988610846806900F0040059
:103C7000009000BF00BF012001900290022004903C
:103C800001A96448FEF7A2F9002201216148FEF76C
:103C900047FBB9E0012211465E48FEF741FB4FF4B5
:103CA0008C70FFF749FF0120FFF776FE1FFA80FBBB
:103CB0001320FFF741FF002201215648FEF730FB99
:103CC00042F2D050FFF738FF584600F011FE804610
:103CD00000F0B6FD06464FF066324F4B00F0C8FBD1
:103CE000044600F04BF98246504600F0E1FD1FFA11
:103CF00080FB504600F0A4FD044622460B4647A038
:103D0000FCF792FA00BF20214848FEF7FFFA00BFF7
:103D10004FF47A70FFF7F4FE45A0FCF785FA5046A1
:103D200000F08EFD06460022434B00F09FFC8046CB
:103D30000022424B00F008FA044600F01FF90590FB
:103D4000504600F07DFD04463D4A3E4B00F054FBDA
:103D500015D20021059800F0DFFD06D23AA0FCF74D
:103D600063FA3DA0FCF760FA4EE0059800F068FDAC
:103D7000044622460B463DA0FCF756FA44E0504666
:103D800000F05EFD044600223D4B00F035FB38D2CA
:103D9000059800F055FD06463A4A3B4B00F066FC9C
:103DA000044600F0EBF805903849504600F033FE29
:103DB0001DD237A0FCF738FA059800F041FD044603
:103DC00022460B4629A0FCF72FFA012211021748C0
:103DD000FEF7A6FA6420FFF793FE00224FF48071ED
:103DE0001248FEF79DFA6420FFF78AFE0CE0059862
:103DF00000F026FD044622460B461CA0FCF714FAF0
:103E000002E029A0FCF710FA44E70000901000201F
:103E1000001002400008014066665A3F566F6C74FD
:103E20006167653A202566560A000000000C0140D3
:103E30003131310A000000000000E03F000018406E
:103E4000CDCCCCCCCCCCEC3F647573743A302E30F6
:103E50006D672F6D5E330A00647573742064656E40
:103E600073697479206C6F77210000006475737436
:103E70003A252E33666D672F6D5E330A0000000011
:103E800000001040B81E85EB51B8AE3F0000404026
:103E9000647573742064656E7369747920746F6FD0
:103EA0002068696768210000616463206D65617343
:103EB0007572656D656E742057726F6E67210000B4
:103EC00030B58FB00546012401200590000406900E
:103ED0000020079002200C90C1030D910E9505A8BB
:103EE000FEF730FD04460CB100BFFEE70F20009046
:103EF00002200190002002904FF480600390002087
:103F0000049002216846FEF7E7FB04460CB100BFAF
:103F1000FEE70FB030BD000010B5044609480A495D
:103F200008600846446000218160C16001618161D0
:103F30000C214161FFF712F8012204490248FFF702
:103F4000D1F910BD00380140E40000200E0000202F
:103F500010B500290AD00878002807D00548784411
:103F6000FCF7C0FD002801D0002010BD02487844B5
:103F700010BD0000FE0B0000F60B000021F0004217
:103F8000A2F16052B2F5801F01F0004328BFD2F1C8
:103F90007F6C0BD95FEA001C43EAC20242EB50700F
:103FA00018BF704728BF20F001007047B2F5801F8E
:103FB000BCBF184670474FEA410C1CF5001F02D2E7
:103FC000084600F023BD70B500F0FCFA000000893F
:103FD000FFF7F6BF4FF00040A0F5800070470000EB
:103FE00010B591EA030F48BF83F0004300F1468308
:103FF000841A71EB030C05D2121943EB0C03001B5E
:1040000061EB0C01DFF824E14FEA1154A4EB135CDF
:104010001EEA430F18BF9EEA445F73D023EA0E03E3
:10402000DCF1200E21EA045143F4801332D322FA4A
:104030000CFE10EB0E0023FA0CFE41EB0E01CCF14E
:10404000200E03FA0EFE10EB0E0051F10001B1F547
:10405000801FCCF1200E32D201EB045112FA0EF285
:10406000BDE8104058BF7047401C38BF5FEA4202AD
:1040700018BF7047002814BF20F0010041F1000173
:104080004FEA410313F5001F38BF7047A1F1C0414B
:1040900000F0E6BA012A43EB0302ACF1200CDCF19C
:1040A0001F0E32BF4FF0000E23FA0CF310EB03008B
:1040B00041EB0451B4EB115FD0D0A1EB045101F5F9
:1040C000801149085FEA300001EB04510ED350F132
:1040D000000038BF12FA0EFE08D1BDE81040C9E753
:1040E000401C38BF5FEA4202CAD1C3E7BDE81040B6
:1040F0004FEA410313F5001F38BF7047A1F1C041DB
:1041000000F0AEBA9EEA445F08D011EA5E0FBDE847
:10411000104004BF01F0004100207047BDE810408E
:1041200070B500F04FFA00BF64FBBE3E0000E0FF38
:10413000491058BFC1F140415B1058BFC3F1404323
:104140008B42EFF3008070472DE9C04130B4DFF8B7
:10415000A0C23CEA111418BF3CEA131400F0EC8032
:1041600081EA03051CEA111444EAD57418BF1CEA5D
:10417000131500F0C780A4EB05044FF0004545EA95
:10418000C12145EAC32341EA505143EA525304F1A5
:104190007F74994204F500344FEAC0204FEAC222EE
:1041A00008BF904200F09C804FEA13650FF2401662
:1041B000765D4FEA134506FB05F7C7F1807706FBEE
:1041C00007F74FEAD737A7FB03687642C8F5803870
:1041D000A7FB06CE38BFA8F1010807FB08E64FF0A1
:1041E000000EA6FB028CE6FB03CEDCF1000CCEF148
:1041F000004E38BFAEF1010EA6FB0C584FF0000781
:104200004FF00005E6FB0E87A1FB08C6A0FB07CE1A
:1042100016EB0E0645F10005E1FB076515F1E04ED2
:104220007EBFA4F580345FEA46066D4116F1800733
:1042300045F100054FEA17274FEA066647EA05678A
:10424000A6F1DE46B6F1805F4FEA15251FD9384644
:1042500024F0010C05EBC471BCF1FE6F01EB0C11F5
:1042600002D8F0BCBDE8008124425CBF01F5801E8D
:104270009EEAC47F02D4F0BCBDE80081244238D459
:10428000F0BCA1F1C041BDE8004100F0E9B94FEA3E
:10429000D22242EA43524FEAD323A7FB02864FEAD7
:1042A000D02040EA415007FB03661EEA0E0F4FEA9A
:1042B000D12105FB026658BFA6EB0056B6EB0056AF
:1042C0004FEA520E4EEAC37E18EB0E0E56EB530E1B
:1042D000BDD518EB02085E417F1C55F10005B6E71D
:1042E0004FF480154FF000074FF000064FF0000824
:1042F000ADE7F0BC4FF0000001F1C04101F000411A
:10430000BDE8008111EA0C1F0CEA131500D00CE087
:1043100013EA0C1F00F025804FF00000F0BC81EA8A
:10432000030101F00041BDE80081F0BCBDE800419F
:1043300081EA030100F094B9F0BCBDE8004170B51A
:1043400000F040F9097EFC3E00F007B881EA030165
:104350004FF0000001F00041704781EA030100F0D6
:104360007FB9F0BCBDE800414FF000002149704723
:10437000FFFDFBF9F7F5F4F2F0EEEDEBE9E8E6E42A
:10438000E3E1E0DEDDDBDAD8D7D5D4D3D1D0CFCDB1
:10439000CCCBCAC8C7C6C5C4C2C1C0BFBEBDBCBBEA
:1043A000BAB9B8B7B6B5B4B3B2B1B0AFAEADACABE5
:1043B000AAA9A8A8A7A6A5A4A3A3A2A1A09F9F9EBF
:1043C0009D9C9C9B9A999998979796959594939371
:1043D000929191908F8F8E8E8D8C8C8B8B8A898908
:1043E000888887878685858484838382828181808B
:1043F0000000FF070000F87F51EA030C17D41CF5FA
:10440000801F58BFBCF5801F00F10680994218BF7D
:10441000704708BF9042704707D711F5801F58BFFB
:1044200013F5801F19D499427047894270471CF5D3
:10443000801F08D5BCF5801FF7D58B4218BF704789
:1044400008BF824270474FF4001C1CEB410F38BF7D
:104450001CEB430F01D28B42704770B500F0B2F8ED
:10446000922449004FF000514FF08053FFF760BE97
:10447000DFF848C170B51CEA111E1EBF1CEA1315F7
:104480009EEA0C0F95EA0C0F00F06F8081EA03049E
:1044900023EA4C134EEAD47E21EA4C1141F48011F8
:1044A00043F48013AE44A1FB024CA0FB0365AEF1C4
:1044B0007F7E361955EB0C05A1FB034C4CF1000334
:1044C000A0FB021C16EB0C06654153F100030942E8
:1044D00018BF46F0010613F4007F0BD14FEA0331F9
:1044E0004FEA0530340341EA155140EA16506FF0A7
:1044F00003020AE04FEAC3214FEAC520F40241EA71
:10450000555140EA56506FF0020202EB2E4201EB89
:10451000025585EACE710AD05FEA440C18BF24F038
:10452000004450F1000041F1000120EAD47040F253
:10453000FE7C624500D270BDA84214BF4FF080449B
:104540004FF04044002E08BF0024BEF1806FA8BF8A
:10455000A1F1C041BDE8704080F282804FF00000C0
:1045600001F1C04101F0004170479EEA0C0F0CEAD6
:10457000131518BF95EA0C0F06D04FF0000081EA22
:10458000030E0EF0004170BD00F01CF88900013EE2
:1045900000F007B800F009B84FEA430C5FEA5C5C32
:1045A00008D081EA030100F05BB84FEA410C5FEAF2
:1045B0005C5CF6D14FF00000014970470000FF0736
:1045C0000000F87F0EF1020E2EF0030E5EF8046B71
:1045D000364205D4012A43EB030515F5001F12D816
:1045E000012841EB010C1CF5001F0CD80ED14FEA3D
:1045F000D17C15F5001F0CEB4C0C0CF1020C08BF24
:104600004CEBD37C04E04FF0080C01E04FEAD37C84
:104610000CEB4C0526FA05F606F00706B6F1040C7D
:1046200006D20EEB860CBDE870404CF0010C6047E2
:10463000DFE80CF0090B02024FF000414FF00000E0
:10464000A1F5002170BD19461046012851EB010467
:1046500018BFD4F5001484BF002001F0004170BDE4
:104660000808A0F500114FEA3101704710B591EA32
:10467000030F48BF83F000433FF5BAAC841A71EBD7
:10468000030C07D212198CF0004C43EB0C03001BF7
:1046900061EB0C01DFF8A4E14FEA1154A4EB135CC9
:1046A0001EEA430F18BF9EEA445F00F0B08023EA81
:1046B0006E03524221EA0451C3EB6E0338BF5B1E06
:1046C000DCF1200E25D322FA0CFE10EB0E0043FA8B
:1046D0000CFE41EB0E01CCF1200E03FA0EFE10EBA6
:1046E0000E0051F10001CCF1200E29D412FA0EF285
:1046F00001EB0451BDE8104058BF7047401C1CBF7F
:10470000B2F1004F704700280CBF491C20F0010097
:10471000704712EB020E43EB030218BF4FF0010E7D
:104720004EEA4202ACF1200CDCF11E0E54D943FAE1
:104730000CFE10EB0E0051F1FF31CCF11E0ED5D561
:104740000EF1010E12FA0EFE404141EB010101EBA8
:10475000445C5FEA5C5C10D910EBDE7001EB045145
:1047600038BFBEF1004FBDE8104018BF70470028A9
:104770000CBF491C20F00100704730D24FEAD42C06
:1047800011F5001124F400641BD0B1FA81F20B3A48
:10479000A41AA41ED2F12003914030FA03F3194366
:1047A000904001EBCC71002C01EB0451BDE81040AE
:1047B000A8BF704701F1C0414FF0000001F0004177
:1047C0007047B0FA80F310FA03F100D110BDE41A7B
:1047D000173C4805C90AE4E701EB045110BD491034
:1047E00001EB0451BDE810404FEA300002E04FF009
:1047F000000170474A0008BF0042F8D0B2F5001F20
:1048000028BF704701F000414FF0000070479EEA5A
:10481000445F07D011EA5E0FBDE8104004BF0021DD
:1048200000207047BDE8104070B5FFF7CBFE00BF19
:1048300040DFF63E83F00041104670470000E0FF85
:1048400043004FEAD30C4FEA3C0C43401FBF4007E4
:104850000CF1605113F0FE4F70471CF0006F03D154
:1048600000200CF0004170470CF0004343EA507008
:1048700010B540EACC0000F083F800BF00000092C1
:104880004FEA0001FFF7ECBE4FF000414FF000008F
:10489000A1F500217047401058BFC0F140404910B9
:1048A00058BFC1F140418142EFF3008070470000E2
:1048B000C10DD1F19E0206DB4FEA002343F0004315
:1048C00023FA02F07047004207D54FEA4001B1F1E8
:1048D000FE4F02D24FF00000704710B500F050F8C4
:1048E00049922480002070476FEA20007047000042
:1048F000B0FA80F310FA03F2C3F19D030AD0D90590
:1049000001EB1220530638BF704700F1010008BFC9
:1049100020F001007047000050EA010C00F1138004
:104920001CF5000F58BFBCF5000F01D4884270473A
:1049300007D710F5000F58BF11F5000F15D48842A6
:104940007047894270471CF5000F04D5BCF5000F75
:10495000F7D5814270474FF0807C1CEB400F38BF89
:104960001CEB410F01D28142704710B500F008F8EE
:10497000922449004FF000504FF08051FFF78BBF59
:104980000EF1020E2EF0030E5EF8044B244204D406
:104990004FEA4102B2F17F4F11D84FEA4003B3F121
:1049A0007F4F0CD80ED14FEAD07CB2F17F4F0CEB89
:1049B0004C0C0CF1020C08BF4CEBD17C04E04FF026
:1049C000080C01E04FEAD17C0CEB4C0324FA03F411
:1049D00004F00704B4F1040C06D20EEB840CBDE81D
:1049E00010404CF0010C6047DFE80CF007080202B1
:1049F0004FF00040A0F5800010BD0846420018BFEF
:104A0000D2F1807288BF00F0004010BDFF2141EA62
:104A1000D050C005704751EA000C00F113801CF51E
:104A2000000F58BFBCF5000F01D48142704707D773
:104A300011F5000F58BF10F5000F15D481427047D3
:104A4000894270471CF5000F04D5BCF5000FF7D55F
:104A5000884270474FF0807C1CEB410F38BF1CEB45
:104A6000400F01D28842704780EA010081EA0001CC
:104A700080EA0100FFF779BFFBF7A8BD0000000046
:104A800000000000010203040607080900000000FE
:104A900001020304040000080000000000000002FE
:104AA000000100001000000002400000000000A013
:104AB0000000000005400000000000C800000000E9
:104AC0000C4000000000409C000000001940000065
:104AD0000020BCBE0000000034400000BFC91B8E97
:104AE00000000004B5400000504BCFD06607E2CF75
:104AF000010000006C4100003E8251AADFEEA734A5
:104B000001000000D9420000DCB5A0E23A301F9756
:104B1000FFFFFFFFB4450000FD25A0C8E9A3C14F7A
:104B2000FFFFFFFFFF3F00000000008000000000CB
:104B3000FF3F00000000008000000000784B0008EC
:104B4000000000201C0000006C010008944B0008CD
:104B50001C000020FC160000880100081C0000005A
:104B600043000000F8FFFFFF0C0000000E000000F3
:104B70000F0000002E0000000024F40000000000E0
:104B80000000000000000000000000001000000015
:044B90000100000020
:0400000508000131BD
:00000001FF
